:0200000470107A
:100400000000203491431070C13D1070C33D107046
:10041000C53D1070C73D1070C93D1070CB3D1070C8
:10042000000000000000000000000000CD3D107042
:10043000CF3D10700000000045081070E9071070F3
:10044000ED43107000000000ED431070ED4310709C
:10045000ED431070ED431070ED431070ED431070DC
:10046000ED43107000000000ED431070ED4310707C
:10047000ED431070ED431070ED431070000000006C
:10048000ED43107000000000ED431070ED4310705C
:10049000ED431070ED431070ED431070ED4310709C
:1004A000ED431070ED431070ED431070ED4310708C
:1004B000ED431070ED431070ED431070ED4310707C
:1004C000ED431070ED431070ED431070ED4310706C
:1004D0000000000000000000ED431070ED431070BC
:1004E000ED4310700000000000000000000000005C
:1004F0000000000000000000ED431070DF3D1070B0
:10050000D13D10700000000000000000000000005D
:10051000ED431070DDE21070ED431070ED4310708C
:10052000ED431070ED431070ED431070ED4310700B
:10053000ED431070ED431070ED431070ED431070FB
:10054000ED431070ED431070ED431070ED431070EB
:10055000ED431070ED431070ED431070ED431070DB
:10056000ED431070ED431070ED431070ED431070CB
:10057000ED431070ED431070ED431070ED431070BB
:10058000ED431070ED431070ED431070ED431070AB
:10059000ED431070ED431070ED431070ED4310709B
:1005A000ED431070ED431070ED431070ED4310708B
:1005B000ED431070ED431070ED431070ED4310707B
:1005C000ED431070ED431070ED431070ED4310706B
:1005D000ED431070ED431070ED431070ED4310705B
:1005E000ED431070ED431070ED431070ED4310704B
:1005F000ED431070ED431070ED431070ED4310703B
:10060000ED431070ED431070ED431070ED4310702A
:10061000ED431070ED431070ED431070ED4310701A
:10062000ED431070ED431070ED431070ED4310700A
:10063000ED431070ED431070ED431070ED431070FA
:10064000ED431070ED431070ED431070ED431070EA
:10065000ED431070ED431070ED431070ED431070DA
:10066000ED431070ED431070ED431070ED431070CA
:10067000ED431070ED431070ED431070ED431070BA
:10068000ED431070ED431070ED431070ED431070AA
:10069000ED431070ED431070ED431070ED4310709A
:1006A000ED431070ED431070ED431070ED4310708A
:1006B000ED431070ED431070ED431070ED4310707A
:1006C000ED431070ED431070ED431070ED4310706A
:1006D000ED431070ED431070ED431070ED4310705A
:1006E000ED431070ED431070ED431070ED4310704A
:1006F000ED431070ED431070ED431070ED4310703A
:10070000ED431070ED431070ED431070ED3D10702F
:10071000ED431070ED431070ED431070ED43107019
:10072000ED431070ED431070ED431070ED43107009
:10073000ED431070ED431070ED431070ED431070F9
:1007400000000000ED431070ED4310700000000049
:1007500010B5054C237833B9044B13B10448AFF3FB
:1007600000800123237010BD40030034000000000E
:10077000DCDD117008B5034B1BB103490348AFF32F
:10078000008008BD0000000044030034DCDD11706F
:1007900072B64FF0E0201B49C0F8081D1A480168E6
:1007A00041F00101016019481649096801604FF0E4
:1007B000E020174941614FF0070101614FF000014E
:1007C000C0F8181D4FF07F41C0F81C1D1149C0F83A
:1007D000201D7047FFF7FEBF01B518F001FC18F0AF
:1007E0005BFCBDE80140704701B518F0F9FB00F073
:1007F000A3F818F051FCBDE801407047FFF7FEBFB9
:10080000FFF7FEBF00041070001000E028C40034A1
:10081000FF340C000000FF404FF00000324A10602F
:10082000EFF3148020F0040080F3148862B64FF0D8
:1008300080504FF0E021C1F8040DBFF34F8FBFF39C
:100840006F8FFEE772B601B518F08AFBBDE8014074
:1008500062B62648264A4FF00003016891B1036052
:10086000EFF3098C2CE9F00F1EF0100F01D12CEDE5
:10087000108A204C4CF804EDC1F808C025680DB171
:100880008D61236072B61168F1B1016062B64F6884
:10089000184C8D6907F101074F60256003B418F00B
:1008A00035FB03BCD1F80CC08CF30B88D1F808C021
:1008B0005CF804EB1EF0100F01D1BCEC108ABCE810
:1008C000F00F8CF30988704772B61168016009B99E
:1008D00062B6F9E74FF000674FF0E028C8F8047DF2
:1008E00062B6D4E77047000088C3003424C40034E3
:1008F00020C400342CC40034026922F00702A2F1A3
:1009000044026FF0020313604FF0000353609360E2
:10091000D360136153619361D36113625362936235
:10092000D362136353634FF0FF339363D1634FF08C
:1009300080731364826070472249086800F10100E7
:100940000860214B1A683AB1A2F101021A601AB983
:100950001E4B4FF0010018601D490868026822B163
:100960001C4B4FF001021A6008E000F104001A4B22
:100970001A68904201D1194B18680860134B1A6825
:1009800012B914490868C8B101B51249086808B11C
:1009900017F0F2FD0D4B1A6872B117F05FFD1048A9
:1009A000016849B90F4801680F4A13680F484FF0B2
:1009B0008052994200D00260BDE80140BFF34F8FE2
:1009C00070470000A0C900342CC400349CC9003416
:1009D00010C900340CC9003414C9003418C90034DB
:1009E00088C3003424C4003420C4003404ED00E083
:1009F00090EDAD6A30B52DED108B90EDA87BB5EE86
:100A0000C06A87B08DED027B002390EDA47BF1EEF0
:100A100010FA91ED015A91ED004A91ED02FB91ED32
:100A200004EB044690ED123B90EDAACB90ED16AB93
:100A30008DED047B90EDA6BB80F8603009DCD0F82A
:100A4000C832D14898474FF0FF3007B0BDEC108B4B
:100A500030BDB8EE455B9FEDBE7BB8EE444B25EE56
:100A6000077BB4EEC47BF1EE10FA0FDD90ED1C7B3A
:100A70009FEDB92B37EE022B9FEDB97BB4EEC72B60
:100A8000F1EE10FA37FE027B80ED1C7B9FEDB67B0A
:100A900025EE075BB4EEC45BF1EE10FA10D594EDD1
:100AA0001C7B9FEDAD5B37EE457B9FEDB15BB4EEFC
:100AB000C57BF1EE10FA58BFB0EE475B84ED1C5BCE
:100AC00083EE0C8BBCEEC88BB8EE488B94F850507C
:100AD00028EE0C8B012DB7EEC66A40F0AC809FED7E
:100AE000A67B3FEE4E5B85EE07DB3FEE0E5B85EEB1
:100AF000079BB0EECD7BB4EEC76BF1EE10FAB0EE13
:100B0000C95B1FDBB4EEC56BF1EE10FA1ADB0023F4
:100B100084F8783094ED1A7BB5EEC07BF1EE10FAD4
:100B200040F33481012384F860309DED027BB4EE04
:100B3000C7ABF1EE10FA40F13C819DED047B3AEE3B
:100B400007BB28E1B4EEC56BF1EE10FA0CD589EEC7
:100B50000D5B94EDAE6AB0EEC55BB7EEC66AB4EE5F
:100B6000C65BF1EE10FAD5DAF7EECA0BB7EEC70B9B
:100B70001CF0BEFEB2EE047BB7EEC00A20EE070BFF
:100B8000FCEEC87BB0EECE6BCDED017AB0EECF7B44
:100B9000B4EEC67BF1EE10FA62DCB5EEC0EBF1EE1E
:100BA00010FA62D538EE000B94ED3C7BB4EEC07BBE
:100BB000F1EE10FA03D5B0EE4BABB0EE470B94ED6F
:100BC0003A7BB4EEC07BF1EE10FA03DDB0EE4BAB36
:100BD000B0EE470B80EE0C8BBCEEC88BB8EE488BAA
:100BE000012D2CEE088B16D1B4F8E030022B3FD843
:100BF000DDED017AB8EE677B04EBC30282ED207B6A
:100C000082ED268B04EB0312013382ED2CDB82EDA7
:100C10002E9BA4F8E03094F87830012B07D0FCEE3E
:100C2000C87B17EE903A019A93423FF473AF0123C9
:100C300084F860306EE7B0EECF7BB0EECE5BB4EE02
:100C4000475BF1EE10FA35FE077BB4EEC67BF1EEA2
:100C500010FA7FF65FAF9FED4A9BB0EE49DB83E76A
:100C6000B5EEC0FBF1EE10FA9CD538EE400B9BE7D9
:100C700094ED2A7B94EDAF6A38EE477BB7EEC66AF7
:100C8000B0EEC77BB4EEC67BF1EE10FA56DB94ED06
:100C9000287B38EE477BB0EEC77BB4EEC76BF1EE36
:100CA00010FA4BDD94ED320B94ED307B39EE400BB6
:100CB0003DEE477B20EE000BA7EE070B1CF010F972
:100CC00094EDB07AB7EEC77AB4EEC70BF1EE10FA36
:100CD00034D5DDED017AB8EE678B84F8785094F85E
:100CE0007830002B97D1102204F1880104F18000A4
:100CF00019F0DAFF102204F1A00104F1980019F0B4
:100D0000D3FFD4E93023DDED017AB8EE677BC4E987
:100D10002C23D4E9322384ED247BC4E92E23D4E9A7
:100D2000342384ED2A8BC4E93023D4E9362384EDBF
:100D300034DB84ED369BC4E932236CE794F87830D9
:100D4000012B04BF002384F87830C8E7AFF300809C
:100D50009A9999999999A93F7B14AE47E17A843F72
:100D6000343333333333C33F333333333333C33F1A
:100D7000111111111111B13FCD3B7F669EA0F63FBD
:100D80000000000000000000C8F4117094F860300A
:100D9000002B7FF4CAAE88EE0C7BBCEEC77BB8EEAE
:100DA000477B27EE0C7B84ED16BB84ED127B012084
:100DB0004BE69DED02BBEEE790ED1A6BB5EEC06B16
:100DC00090ED124BF1EE10FA90EDAA5BB0EE467B7F
:100DD000DFBF84EE057BBCEEC77BB8EE477B27EE1A
:100DE000057BB7EEC77B90ED3C5BB7EEC74AB4EE30
:100DF000C54BF1EE10FAC8BFB7EEC57B90ED3A5B7C
:100E0000B7EEC74AB4EEC54BF1EE10FA48BFB7EEE5
:100E1000C57BB7EEC75AD0F8743230B580ED125B9F
:100E200093ED005AD0EDAC7AB4EEC75AF1EE675AA2
:100E3000F1EE10FA4FF00001B0F8F83075FEA77A25
:100E4000013B8AB2934205D8442202FB030303F517
:100E5000907311E000EB8204D4ED445A77EEA55A6A
:100E6000F4EEC75AF1EE10FA01F10101E9DB442377
:100E700003FB020202F59073B5EEC06BF1EE10FABF
:100E8000C0F8743205DC93ED007AB7EEC77A80EDD6
:100E9000127B5A6803F1380142609A6803F1240416
:100EA0008260DA68C2601A69026100F138025D6925
:100EB0000C334561DD680C30C5601D69A3420561D6
:100EC00051F8045B42F8045BF1D1012030BD10B54C
:100ED000044690B070B10023084C40212370C4F840
:100EE000C802074B6846074A19F096FD6846D4F8D1
:100EF000C8329847204610B010BD00BF60030034D0
:100F0000503F137008F51170002814BF01204FF0F6
:100F1000FF30704780ED000A30B50C6844604C68C3
:100F200084608C68C460C96802F12404016100F126
:100F3000380115680C32456152F8085C0C30C56008
:100F400052F8045CA242056153F8045B41F8045B6B
:100F5000EFD130BD2DE9F04F2DED068B0E46B0EEF2
:100F6000409BB0EE418B1D460446C7B0002800F000
:100F70008F819FEDCBAB80ED12AB0020CE494FF0BF
:100F80000008C4E91601C4E9A601C4E9AA01CB49D5
:100F9000DFF85C93C4F8B0124FF07E51C4F8B4127D
:100FA0004FF07C51C4E91A890FF2FC29D9E9008974
:100FB000C4E91C89C4E9A4894FF00008C4F8B81238
:100FC000BF49DFF83093C4F8BC124FF07F510023C3
:100FD000C4E9A88901274FF00008C4F8C012711EA7
:100FE000DFF8149388B20428C4E9A0890FF2C0295D
:100FF000D9E9008984F86030C4E9A289A4F8E03016
:1010000084F87830A4F8787214D905234FF48071ED
:10101000AC4A06A819F000FDD4F8C83206A89847D3
:1010200084F85070204647B0BDEC068BBDE8F04F09
:10103000FFF7C2BE95ED007AB7EEC77AB4EEC70BE4
:10104000F1EE10FA12DDD4F8C8329F48984795EDBA
:10105000007AB7EEC77A8DED009B8DED027B9B4A3F
:101060004FF4807106A819F0D7FCD5E74FF0440C77
:101070000CFB065818ED117AB7EEC77AB4EEC71B11
:10108000F1EE10FA41D5D4F8C8329148984798ED5E
:10109000007AB7EEC77A8DED008B8DED027B8D4A1D
:1010A000DEE70CFB08F705EB070944372F4499ED01
:1010B000007AD7ED007AB4EEE77AF1EE10FA08F193
:1010C000010A00F1010021DBD4F8C83282489847B8
:1010D00097ED007AB7EEC77A8DED047BCDF808A0C6
:1010E00099ED007AB7EEC77A43468DED007B7B4AD7
:1010F0004FF4807106A819F08FFCD4F8C83206A806
:101100009847012384F850308CE718461FFA80F87E
:101110004145C6D800234FF0440CB01E9FB2B942DF
:1011200039D884ED3A9B84ED3C8B0020A4F8F8601C
:1011300083B2994200F1010000F28B800027B8468B
:1011400004F1FC0A04F5907905EB070B09EB0700A5
:10115000442259461AF059F8DBF8003008F101082A
:101160004AF8043B1FFA88F39E4207F14407EBD884
:10117000731E9BB2002E03F1010314BF1A46012215
:10118000C4F8749204F5B271013A6AD1012384F86B
:101190005030237046E702EB8709B842D9ED007A58
:1011A0004FEA870807F1010A1ED908F104089044A4
:1011B00098ED007AB4EEE77AF1EE10FA14D8D4F88C
:1011C000C8324748984798ED007AB7EEC77A8DED58
:1011D000047BCDF808A099ED007AB7EEC77A3B46BC
:1011E0008DED007B3F4A83E70CFB07F805EB080A0F
:1011F0009AED007AB4EEE77AF1EE10FA08F14408BD
:10120000A84408DA98ED007AB4EEE77AF1EE10FA25
:1012100003F1010382D8D4F8C8323348984798EDD7
:10122000007AB7EEC77A8DED047B9AED007AB7EEBF
:10123000C77A8DED027B99ED007AB7EEC77A3B460F
:101240008DED007B4FF48071284A06A819F0E4FB6D
:1012500053E702EB83073F6804EB8303C3F8107185
:1012600066E7D4F8743291ED006A93ED007AB7EE38
:10127000C66AB7EEC77A36EE4A6B37EE4A7BB4EEF3
:10128000C76BF1EE10FA48BFC4F8741244317BE723
:101290004FF0FF3047B0BDEC068BBDE8F08F00BFCC
:1012A000000000000088B3409A9999999999B93F34
:1012B0000000000000A06E400000F03F0000484227
:1012C00000002F4318F511705CF51170E3F51170F3
:1012D00041F61170C9F6117026F711708AF7117076
:1012E000E2F7117051F81170BBF8117012F911701A
:1012F0000000F0BF000008400000244030B5054663
:1013000014468DB052B9D0F8C8321D489847D5F868
:10131000C8321C48984720460DB030BD93ED042BD1
:1013200093ED021B93ED000B0AAA08A906A800F092
:101330002FF8DDE90823CDE90223DDE90A23CDE911
:101340000423012398420446CDE90033DFD16946E6
:101350002846FFF74DFB0128044603D0D5F8C832D4
:101360000948D7E795F86030012BD4D12846FFF71C
:1013700023FD01280446CED0D5F8C8320348C9E77A
:1013800098F91170F9F9117022FA117056FA11706A
:10139000B5EEC00BF1EE10FA1FB509D4B5EEC01BC7
:1013A000F1EE10FA04D4B5EEC02BF1EE10FA0DD523
:1013B0008DED022B8DED001B53EC102B444819F0E2
:1013C000FFF94FF0FF3005B05DF804FB9FED327B75
:1013D000B4EEC70BF1EE10FA09DCB4EEC71BF1EE68
:1013E00010FA04DCB4EEC72BF1EE10FA07DD8DED38
:1013F000022B8DED001B53EC102B3648DFE728B194
:1014000089B1B2B93449354B084607E071B1334967
:101410003148002A304A314B18BF13460246304843
:1014200019F0CEF9CDE72C492C48F2E72B490846B4
:10143000EFE79FED1B7B9FED1C6B21EE077BB3EE6F
:10144000005BA0EE067B9FED1A6BA2EE057BA7EE7C
:10145000065B9FED197B80ED005B27EE417BBBEEC9
:101460000A5BA0EE057B9FED165BA2EE057B27EEE7
:10147000067B81ED007B9FED147B27EE411BB2EED6
:10148000047BA0EE051BA2EE471B21EE061B0120EC
:1014900082ED001B97E700BF0000000000E06F40F6
:1014A0000000000000A063400000000000804740F2
:1014B000000000000000703F000000000080554068
:1014C0000000000000005C40000000000080594067
:1014D0008BFA1170C9FA117013E6117011E61170D0
:1014E00009FB11700000000010B5044690B060B117
:1014F0000023074C40212370A065064B6846064A2E
:1015000019F08AFA6846A36D9847204610B010BDBE
:1015100030060034563F137053FB1170002814BF7F
:1015200001204FF0FF30704738220A23C0E904231E
:1015300064232D227821C0E9063240F2DC5230B516
:10154000C0E9081241F2707442F6E062C0E90A4252
:101550000BA5D5E9004505224FF0000C026548F2C5
:10156000E802C0E910C20122C0E90C4506A5D5E990
:101570000045C0E91223C0E90E4530BDAFF300803D
:1015800000000040E17A943F000000E04D62703FAF
:1015900010B5044620B1FFF7C7FF0120207010BD31
:1015A0004FF0FF30FBE72DE9F0410E4604460028DE
:1015B00000F0E180017801290BD102210170A56CB6
:1015C000C4E90126B54208D2616C914205D9A560F3
:1015D0004CE00229F3D0002049E0D4F810C0B6EE68
:1015E000005B07EE90CAB8EE676A07EE903AB8EE75
:1015F000E77BB7EEC66A37EE057B86EE070B216DFB
:10160000B7EEC00B8B424BD2F0EE007AB4EEE70A95
:10161000F1EE10FA44D4616CB7EE007A8A4220D21F
:10162000012A134638BF012307EE903AF8EEE77A15
:1016300067EE807AFDEEE77A17EE903A8B42C1BFF3
:1016400007EE901AB8EEE76A07EE902AF8EE676A9E
:10165000C3BFC6EE267A0B4680EE270AB0EE470AD5
:101660006360B4EEC70AF1EE10FA02DC0120BDE8B7
:10167000F081B7EEC00A1BF0FFFBB3EE047B20EE57
:10168000070B9FED3F7B20EE070BBDEEC00B10EE6E
:10169000103AE26C33449342D4BFA360A260E5E702
:1016A000ACEB0307E16987EAE770A0EBE7708842DB
:1016B00047D8606AD4F814E0A1690EEB0C0898458D
:1016C00007FB01F143D207EE900A9FED2F7AF8EE67
:1016D000E77A67EE877A07EE101AF1EE676AB8EEDE
:1016E000C77AB4EEE67AF1EE10FA04D5FDEEE77AA9
:1016F00017EE903A59420029B8D0B54232D1606C09
:10170000904201D800292DDA02FB077707EE902AD4
:1017100006EE907A0029B8EEE77BB8EEE66B1EDAAB
:1017200094ED0E5BA5EE067BBDEEC77B17EE102A8F
:10173000236C9A42B8BF1A468242D4BF626060608E
:1017400094E7216A88422CBFE06AA06AB2E7ACEB5A
:101750000E0C9C458ADD8142A8BF0146CBE794ED83
:101760000C5BDFE70E44B5423FF731AFE56CB542A5
:10177000A8BF35462BE74FF0FF3078E7AFF3008086
:101780000000000000408F409A99593F034613F82B
:10179000012B002AFBD1181A0138704781F0004153
:1017A00002E000BF83F0004330B54FEA41044FEA46
:1017B000430594EA050F08BF90EA020F1FBF54EAE1
:1017C000000C55EA020C7FEA645C7FEA655C00F07D
:1017D000E2804FEA5454D4EB5555B8BF6D420CDD4E
:1017E0002C4480EA020281EA030382EA000083EAD1
:1017F000010180EA020281EA0303362D88BF30BD71
:1018000011F0004F4FEA01314FF4801C4CEA1131C6
:1018100002D0404261EB410113F0004F4FEA033325
:101820004CEA133302D0524263EB430394EA050FB0
:1018300000F0A780A4F10104D5F1200E0DDB02FA1F
:101840000EFC22FA05F2801841F1000103FA0EF2B3
:10185000801843FA05F359410EE0A5F120050EF179
:10186000200E012A03FA0EFC28BF4CF0020C43FAAA
:1018700005F3C01851EBE37101F0004507D54FF0B7
:10188000000EDCF1000C7EEB00006EEB0101B1F507
:10189000801F1BD3B1F5001F0CD349085FEA30004D
:1018A0004FEA3C0C04F101044FEA445212F5800F58
:1018B00080F09A80BCF1004F08BF5FEA500C50F1F5
:1018C000000041EB045141EA050130BD5FEA4C0CD8
:1018D000404141EB0101013C28BFB1F5801FE9D235
:1018E00091F0000F04BF01460020B1FA81F308BF58
:1018F0002033A3F10B03B3F120020CDA0C3208DD24
:1019000002F1140CC2F10C0201FA0CF021FA02F1FE
:101910000CE002F11402D8BFC2F1200C01FA02F16E
:1019200020FA0CFCDCBF41EA0C019040E41AA2BF93
:1019300001EB0451294330BD6FEA04041F3C1CDA5B
:101940000C340EDC04F11404C4F1200220FA04F07B
:1019500001FA02F340EA030021FA04F345EA030125
:1019600030BDC4F10C04C4F1200220FA02F001FAE7
:1019700004F340EA0300294630BD21FA04F0294669
:1019800030BD94F0000F83F4801306BF81F4801102
:101990000134013D4EE77FEA645C18BF7FEA655C75
:1019A00029D094EA050F08BF90EA020F05D054EA47
:1019B000000C04BF1946104630BD91EA030F1EBF4C
:1019C0000021002030BD5FEA545C05D14000494150
:1019D00028BF41F0004130BD14F580043CBF01F543
:1019E000801130BD01F0004545F0FE4141F4700129
:1019F0004FF0000030BD7FEA645C1ABF1946104604
:101A00007FEA655C1CBF0B46024650EA013406BF04
:101A100052EA033591EA030F41F4002130BD00BFC3
:101A200090F0000F04BF0021704730B54FF4806480
:101A300004F132044FF000054FF0000150E700BF01
:101A400090F0000F04BF0021704730B54FF4806460
:101A500004F1320410F0004548BF40424FF000014D
:101A60003EE700BF42004FEAE2014FEA31014FEA90
:101A700002701FBF12F07F4393F07F4F81F06051DF
:101A8000704732F07F4208BF704793F07F4F04BF2A
:101A900041F40021704730B54FF4607401F0004507
:101AA00021F000411CE700BF50EA010208BF704767
:101AB00030B54FF000050AE050EA010208BF704758
:101AC00030B511F0004502D5404261EB41014FF4C1
:101AD000806404F132045FEA915C3FF4D8AE4FF0C9
:101AE00003025FEADC0C18BF03325FEADC0C18BFAC
:101AF000033202EBDC02C2F1200300FA03FC20FAFD
:101B000002F001FA03FE40EA0E0021FA02F1144449
:101B1000BDE600BF7BB972B90029BEBF00204FF0FF
:101B2000004106E008BF00281CBF6FF000414FF0E5
:101B3000FF3000F0FDB9ADF1080C6DE904CE0029CD
:101B400009DB002B1ADB00F04DF8DDF804E0DDE9DD
:101B5000022304B07047404261EB4101002B1BDBC4
:101B600000F040F8DDF804E0DDE9022304B0404273
:101B700061EB4101524263EB43037047524263EB16
:101B8000430300F02FF8DDF804E0DDE9022304B0A0
:101B9000404261EB41017047524263EB430300F066
:101BA00021F8DDF804E0DDE9022304B0524263EBE2
:101BB0004303704753B94AB9002908BF00281CBF26
:101BC0004FF0FF314FF0FF3000F0B2B9ADF1080C2B
:101BD0006DE904CE00F006F8DDF804E0DDE902234B
:101BE00004B070472DE9F04F8C46099E04460F461D
:101BF000002B48D18A4215465ED9B2FA82F33BB136
:101C0000C3F120029F409D409C4020FA02F21743FE
:101C10004FEA154E1FFA85FC220CB7FBFEF10EFBB6
:101C2000117701FB0CF042EA0742904207D9AA184B
:101C300001F1FF3702D2904200F258813946121A60
:101C4000A4B2B2FBFEF00EFB102200FB0CFC44EA37
:101C50000244A4450BD92C1900F1FF322CBF0127F7
:101C60000027A44502D9002F00F04381104640EA26
:101C70000140A4EB0C0400211EB1DC400023C6E9A6
:101C80000043BDE8F08F8B4206D90EB1C6E90001D2
:101C900000210846BDE8F08FB3FA83F1002951D145
:101CA0006345C0F01681824240F213810846002E3F
:101CB000E7D0C6E90047E4E7002A00F0AF80B2FAB7
:101CC00082F3002B40F0C2808A1A4FEA154EAFB261
:101CD0000121200CB2FBFEFC0EFB1C2240EA02425A
:101CE00007FB0CF090420ED9AA180CF1FF382CBF5C
:101CF0004FF001094FF00009904203D9B9F1000FEC
:101D000000F0F080C446121AA4B2B2FBFEF00EFB43
:101D1000102200FB07F744EA0244A7420ED92C190F
:101D200000F1FF322CBF4FF0010E4FF0000EA74222
:101D300003D9BEF1000F00F0D2801046E41B40EA48
:101D40000C4099E7C1F120058B400CFA01F400FA30
:101D500001F922FA05F72CFA05FC8A401F4320FA04
:101D600005F3380C23431FFA87FE1C0CBCFBF0F86C
:101D700000FB18CC44EA0C4408FB0EFCA4450ED929
:101D80003C1908F1FF3A2CBF4FF0010B4FF0000B4C
:101D9000A44503D9BBF1000F00F0B880D046A4EBF6
:101DA0000C041FFA83FCB4FBF0F300FB134403FBA9
:101DB0000EFE4CEA0444A6450ED93C1903F1FF304F
:101DC0002CBF4FF0010C4FF0000CA64503D9BCF11D
:101DD000000F00F09F80034643EA0840A4EB0E0486
:101DE000A0FB02EC64457346E04602D307D1F145FF
:101DF00005D2BEEB02036CEB070C0138E0465EB186
:101E0000B9EB030264EB080404FA05F522FA01F3C6
:101E1000CC401D43C6E90054002132E742082F465A
:101E20004B08AC4642EAC172AE46C407110C92B2EE
:101E300041EA034142EA0142B1FBF5F1B3FBF5F09F
:101E40001F23A2EB0C0241EA004142E79D40C3F18F
:101E5000200299409C402CFA02FC4FEA154E20FAD1
:101E600002F2AFB2BCFBFEF80A430EFB18CC110C19
:101E700041EA0C4108FB07FC8C4550D9691808F170
:101E8000FF302CBF4FF001094FF000098C4502D9FB
:101E9000B9F1000F30D0A1EB0C01B1FBFEF808FB4B
:101EA00007FC0EFB181192B242EA0142624534D29D
:101EB000AA1808F1FF312CBF4FF001094FF00009BB
:101EC0006245BED2B9F1000FBBD1A8F102012A448C
:101ED000B7E7841A6CEB030201201746E7E62C44AF
:101EE00002382BE7ACF1020C2A440CE702392A44F1
:101EF000A5E62C440238BAE6A5EB0C0CA8F10200CA
:101F00006144B1FBFEF808FB07FCCAE7A8F1020830
:101F10003C4444E7023B3C445EE7414691E7A1EB89
:101F20000C014046B1FBFEF808FB07FCB9E700BF17
:101F3000704700BF08B54FF0FF31034816F0F4FEBC
:101F400000F072FDF7E700BF485C003410B50024D4
:101F5000C4B04FF48272002103A818F0BEFE00F056
:101F600025FF21464FF4F0734FF448722046009449
:101F700017F000FC17F008FA2146012220461A4B00
:101F800001F0E4FC17F000FA0122C188174B9140E0
:101F9000204601F0DBFC17F0F7F9C188012220464A
:101FA000134B890001F0D2FC17F0EEF9C188012231
:101FB0002046104B01EB810101F0C8FC00F00CFF42
:101FC0004FF0FF310C4816F029FD0B4B4FF4827295
:101FD00003A903F1340019F018F9074844B0BDE82B
:101FE000104016F04DBD00BF00E0117012E01170FE
:101FF0001FE01170A9E81170101800342DE9F041AC
:102000008EB004A800F014FF584E594800F033FC7D
:1020100000230446CDE9023301F0CEFE04AB0121DA
:1020200002AA804601A8019400F01AFF054601F0BB
:10203000C3FE504C0746236813B901F0BDFE206073
:1020400001F0BAFE24684FF0FF31041B4A4816F035
:10205000E5FC42F20F739C4205D925B9029911B1F2
:10206000039B002B43DA0023444A73651360424804
:10207000A7EB0807C6F8507116F002FD3F4B1B682E
:10208000002B2CDD3E4C6369022B28D894ED047A9A
:10209000DFED3C7AB4EEE77AF1EE10FA1FDD01F0E5
:1020A0008BFE41F28832384F05463B68C31A934293
:1020B00015D9D4ED047AB7EEE77ADFF8E0806169EC
:1020C00053EC172B58F82110304818F079FB63694E
:1020D00094ED040A58F8230002F03EF93D602448CC
:1020E00000F0C7FB0121304616F09CFD8DE7284823
:1020F00002680132026027484243B2F1333F16D8EA
:10210000002B30D008464FF001024FF0180C00DCD5
:102110001346013B0CFB051417D10FCC184D0FC50E
:1021200094E803000122154B85E803001A60134B65
:102130001B68002B73659ADD174C114D0FCD0FC432
:1021400095E8030084E8030091E790ED0A7AD4ED66
:10215000047AB4EE677AF1EE10FA00F11800C8BF05
:1021600015460132D5E7054B1D60E0E7F017003456
:10217000B8070034B406003410180034B006003438
:1021800094060034CDCC0C3F9006003427E011704B
:10219000AC060034CDCCCCCC48180034C00312704F
:1021A0002DE9F84F17F07EF8D0E90237FF1A17F043
:1021B0007DF8D0E90232A2EB030801F0FDFD002119
:1021C0000646454800F03AFB002100F01DFCDFF810
:1021D0001CB101F0F1FD8146861B3F4800F04BFB2E
:1021E000012104463D4800F029FB054601F0E4FDCD
:1021F00007F1010E824623464EF001E0BEF1010ECA
:1022000064D1002F1DDD04F01F033B44BFF34F8F4B
:102210006FEA040EE1188E44203B4FEA5E1E203325
:102220000EF1010ED8BF4FF0010E22464EF001E034
:10223000CBF8682220320FF005C8BFF34F8FBFF3F1
:102240006F8F3A462146002016F098FFB8F1000F34
:102250001DDD05F01F034344BFF34F8F6FEA050EEA
:10226000E9188E44203B4FEA5E1E20330EF1010E2A
:10227000D8BF4FF0010E2A464EF001E0CBF85C22A9
:1022800020320FF005C8BFF34F8FBFF36F8F424668
:102290002946002016F08CFF11480BF039FC01F0A4
:1022A0008BFDA0EB0A040C4800F0E3FA0B4800F0A9
:1022B000F8FA4FF0FF310B4816F0B0FB0A48C0E9BE
:1022C0005264203016F0DCFB4E4682E71A78803AE2
:1022D00003F8012B92E700BFA0170034B8070034C1
:1022E0000000003410180034F017003400ED00E056
:1022F00008B50021054800F0A1FA30B100F089FBD3
:10230000BDE80840014800F0CCBA08BDA017003471
:1023100008B500F01DFD00F00DFDBDE8084000F01F
:1023200068BB0000014816F01FBD00BF485C0034C8
:10233000F7B5012205464FF480611A4806F024F8EB
:102340000023194A0193019B93421BD9002427467D
:10235000164E00224FF48061124806F015F80197DE
:10236000019BB34213D301224FF480610D4806F064
:102370000BF80197019BB3420ED30134A542E8D17B
:1023800003B0F0BD00BF019B01330193DBE700BF49
:10239000019B01330193E3E700BF019B01330193EC
:1023A000E8E700BF001802567FB2E60E00879303ED
:1023B000436937B5022B01465DD890ED047ADFED15
:1023C0002F7AB4EEE77AF1EE10FA54D9D0ED007A14
:1023D0009FED2B7A67EE877AFDEEE77A17EE902A6B
:1023E000D0ED027A67EE877AFDEEE77A17EE903A43
:1023F00040F21F34013303EBD3735B105B42981838
:1024000020EAE070D21A22EAE272A042A8BF204677
:10241000A242A8BF224690422DDAD1ED017A9FED6B
:10242000197A67EE877AFDEEE77A17EE903AD1EDEA
:10243000037A67EE877AFDEEE77A17EE904A40F26C
:10244000DF15013404EBD47464106442E11821EA0E
:10245000E1711B1B23EAE373A942A8BF2946AB42E3
:10246000A8BF2B46994206DA4FF0FF245B1A00946E
:10247000121A17F05DF903B030BD00BFCDCC0C3F90
:10248000000048440000F0432DE9F0472DED028B99
:102490000024C4B04FF0FF31674816F045FC03AE8E
:1024A0004FF0FF31654816F0B9FA4FF48272644973
:1024B000304618F0AAFE614816F0E2FAC6F800416C
:1024C000002401F079FC804600F070FC4FF4F073BA
:1024D0004FF4487221462046009417F04BF902ADA4
:1024E000584800F0F3FA23462A462146554800F0A2
:1024F0002BFB16F049FF02222146534B204601F0E8
:1025000025FA16F041FF9DED027AB7EEC77AC18831
:1025100002228DED007B4D4B204601F017FA16F09C
:1025200033FFC18802224A4B01EB4101204601F0F2
:102530000DFA16F029FF0222C188D6F8F830914032
:1025400020460093434B01F001FA16F01DFFC188AD
:10255000062002224143404B204601F0F7F916F0D5
:1025600013FFD6ED3D7A9FED325BB8EE677B85EECB
:10257000076BC18802228DED006B384BC1EBC101A6
:10258000204601F0E3F916F0FFFEC1880222204642
:10259000334B01EBC10101F0D9F93746A1469FED5C
:1025A000318A3368994520DB16F0EEFEC1880A2097
:1025B000022241432C4B0020009401F0C7F96CB972
:1025C0002A4B1B6853B101F0F7FB294B1B68C01A5B
:1025D000B0F57A6F02D22748FFF7EAFE00F0FCFB65
:1025E00001F0EAFBA0EB080454E7D7ED057AF4EE1E
:1025F000C87AF1EE10FA07F1040A11DDBB69022B6B
:102600000ED855461B4C0FCD0FC495E8030084E847
:10261000030001F0D1FB0124154B1860134B1C6023
:102620005046FFF7C5FE09F101091837B9E700BFA9
:102630000000000000408F40F017003410180034F4
:1026400044180034D80600345AE0117063E0117069
:102650006AE0117074E0117079E011707DE0117022
:102660001FE01170CDCC0C3F82E01170B806003431
:10267000BC060034C00600342DE9F04301208DB0C3
:10268000FFF756FE464C00F0D3FA0220FFF750FE4B
:1026900094E8030008AA82E803000221414800F000
:1026A000B1F8D4E902010AAA82E8030002213E48F7
:1026B00000F0A8F83D4800F0FBF900223C4B3D49F2
:1026C0003D4800F031F90320FFF732FE00222023BD
:1026D00011463A4816F0BAFA00222023114638482B
:1026E00016F0B4FA3648342301220021203016F0C7
:1026F0001FF900F01FFB002100F076F9FFF726FC20
:102700000420FFF715FE0A261D230024C0274FF4DE
:1027100080554FF001094FF01E08CDE903360293B2
:10272000284BCDE905470093274A234627490195C1
:10273000274816F025FB274BCDE904690093CDE926
:1027400002882346244A254906970195244816F015
:1027500017FB244BCDE905970093CDE9038623466B
:10276000CDE90158204A2149214816F009FB1C23D4
:10277000CDE902331F4B204A20490093CDE905974C
:102780002346049601951E4816F0FAFA0520FFF735
:10279000CFFD0F4816F0A0FB0DB0BDE8F08300BFE1
:1027A000F8DD1170A0170034B8070034D8060034E3
:1027B000F12210701123107025231070485C003432
:1027C000F0170034884B0034A121107085E011709F
:1027D000885B0034C83A0034FD1F10708FE0117020
:1027E000C84A0034082A00348924107099E0117016
:1027F000083A003448190034351F1070A3E01170F6
:102800004829003470B520230D4616460A4600219B
:10281000044616F01BFA20230022E018114616F099
:1028200015FA84F840502DB13368012D63641CBF44
:102830007368A3640023A4F84C3070BD003918BF3E
:10284000012110B54942044616F06EFA0D280ED04B
:1028500094F84C3004EB8302506C94F84020013320
:10286000B3FBF2F102FB113384F84C3010BD0020B1
:10287000FCE716F079BA10B504464FF0FF3120306E
:1028800016F052FA94F84D3004EB8302506C94F831
:1028900040200133B3FBF2F102FB113384F84D30D9
:1028A00010BD203016F060BA07EE901A06EE902A9E
:1028B000B8EE676AF8EE666A9FED197ADFED195A8D
:1028C000C6EE077A86EEA55AB4EEE75AF1EE10FA94
:1028D00077FE857A27EE877A67EEA57AB4EEC76A27
:1028E000F1EE10FAF4EEE76A37FE067AF1EE10FA2E
:1028F00077FEA67ABCEEC77AFCEEE77A10B517EE43
:10290000903A17EE104A01310132091BD21A4908D8
:10291000520880ED007AC0ED017A8160C26010BD7E
:10292000000048440000F0432DE9F04F4FF002084A
:1029300095B007460E4615460021142203A81C46F2
:1029400018F0CBF903A8CDF8208011F089FC002302
:102950004FF4F072CDE90D334FF448734FF0010A94
:102960004FF00309CDE90932DDE9031210A8CDE9E2
:102970000BA8CDF83C90FFF797FF02AA09A9504693
:1029800011F028FB039B1022019300230BA819468A
:10299000DDF810B018F0A1F9E0235A46019910A80B
:1029A000CDE90933CDE90C9ACDF83C90FFF77CFFD7
:1029B000404602AA09A911F00DFB0FB1064B1F609A
:1029C0000EB1064B1E600DB1054B1D600CB1054BE1
:1029D0001C6015B0BDE8F08F745C0034705C00348E
:1029E0006C5C0034685C00340A460146012011F03A
:1029F000B3BB10B5044611F0E9FA2346BDE8104018
:102A00000022012103F0EDBE0A460146022011F02A
:102A1000A3BB10B5044611F0D9FA2346BDE8104017
:102A20000022022103F0DDBE11F076BC00B5E5B056
:102A30004FF4C8720021684618F04FF9182200239D
:102A4000CDE900234FF400134FF08051329303235C
:102A5000CDE9221328236846259306F0A9FD003806
:102A600018BF012065B000BD012808B505D1054B90
:102A70001B6803B19847002008BD0228FBD1024B18
:102A8000F6E700BF745C00346C5C0034012808B5C4
:102A900005D1054B1B6803B19847002008BD0228EB
:102AA000FBD1024BF6E700BF705C0034685C003479
:102AB000054A0021D2F8FC3043F08073C2F8FC30A4
:102AC000E02218F00AB900BF00ED00E070B504463E
:102AD00000F1380500F1200686B00FCE0FC596E84C
:102AE000030085E80300684616F022FB02A816F0F2
:102AF00029FB04A816F030FBDDE90010029B049DC1
:102B0000039ACB1840EB02025B19059DC4E90A1039
:102B100042EB0502C4E9083201F04EF9A36C226EC3
:102B200020639B1AB3F57A7F04F1380107D3902212
:102B300004F1500006B0BDE8704018F0B5B806B01A
:102B400070BD000000000000F8B504462DED028BBA
:102B500016461D460F46F9B1D4E91023D0E90A0103
:102B6000801A61EB0301FEF79FFFD4E90E239FED6E
:102B70002E7B41EC180BD4E90801801A61EB0301AC
:102B800028EE078BFEF790FF41EC160B88EE067BD4
:102B9000B7EEC77B87ED007AFEB1D4E91C32D4E9E9
:102BA0001601C01A61EB0201FEF77EFFD4E91A326A
:102BB0009FED1D7B41EC180BD4E91401C01A61EBA9
:102BC000020128EE078BFEF76FFF41EC160B88EE33
:102BD000067BB7EEC77B86ED007AFDB1D4E93432CF
:102BE000D4E91601C01A61EB0201FEF75DFFD4E9DA
:102BF00032329FED0D7B41EC180BD4E91401C01A61
:102C000061EB020128EE078BFEF74EFF41EC160B3D
:102C100088EE067BB7EEC77B85ED007ABDEC028BB4
:102C2000F8BD00BFAFF30080000000000000594075
:102C3000F0B587B018220021684618F04EF8002140
:102C4000314A324818F049F8304BBFF34F8F3049C2
:102C50001D4641F001E02F4AC2F8703220330FF0D8
:102C600005C8BFF34F8FBFF36F8F00212A4A2B484F
:102C700018F033F8294BBFF34F8F4BF6803444F0F4
:102C800001E0244AC2F87032013C20330FF007C043
:102C9000BFF34F8FBFF36F8F01F056FE642001F03A
:102CA00093FE4FF4F07602234FF44877CDE90363A7
:102CB0001B4B1C4A1B78694602FB035500200094FD
:102CC00002940197059501F047FE04230493164BE7
:102CD000694601200593CDE901740094039601F043
:102CE0003BFE124816F0EAFA012016F017FB00200E
:102CF00016F080FD0E4816F03FFB4FF0FF3016F047
:102D000033FB07B0F0BD00BF0028230000081C9172
:102D10004019010000ED00E00070170000980491D8
:102D20003000003400B80B000050109138041270CD
:102D300068010034034B04481A78044B00FB02304E
:102D4000704700BF795C003400B80B0000081C918C
:102D5000032310B5114C22780132B2FBF3F101EBE1
:102D60004101521A0E4922700A780132B2FBF3F384
:102D700003EB4303D21A0A7001F030FE2178094BAD
:102D8000094C002204FB013106F0E9F901F026FEAE
:102D9000BDE810400022022106F0C5B93000003421
:102DA000795C003400081C9100B80B0010B572B6B5
:102DB00001F014FE054B064C1978064B012204FB6A
:102DC000013106F0CCF962B610BD00BF785C00346A
:102DD00000B80B000098049110B5114C11492278ED
:102DE000114B01FB0233BFF34F8F45F6C05E4EF02F
:102DF00001E00E4AC2F8683220330FF005C8BFF375
:102E00004F8FBFF36F8F72B601F0E8FD01220221F0
:102E100006F089F962B62378C3F10103237010BD6F
:102E2000785C003400B80B000098049100ED00E0DD
:102E3000094A052182614FF07C52C2610322C0E938
:102E400000210722C0E9022231220261034A026204
:102E50000A22426113F09CBC9A99993E0C041270AC
:102E6000012973B514461D4605D0D021114B124AD5
:102E7000124816F0CFFC4FF4F56E4EF001E00068FA
:102E80000F4B013810F9012F43F8042B0FF007C046
:102E90000C4E9FED0D0A052331464FF4F5620848AC
:102EA00013F08AFD2A46214601A8019613F074FC0E
:102EB00002B070BDC0E01170F8031270CEE0117066
:102EC0001C7B00347C5C0034F927E43D044B82B069
:102ED000C3F85C0AD3F85C320193019B02B07047DF
:102EE000008002562DE9F04FA5B001F049FE1422F2
:102EF00000211FA817F0F1FE0820FFF7E7FF1020C0
:102F0000FFF7E4FF0220FFF7E1FF8020FFF7DEFF7D
:102F10004FF40040FFF7DAFF4FF48040FFF7D6FF91
:102F20004020FFF7D3FF2020FFF7D0FF4FF40050E1
:102F3000FFF7CCFF0120012603254FF480674FF0F7
:102F4000020AFFF7C3FF02464FF48061424805F0D2
:102F50001BFA00225021414805F016FA00220821F0
:102F60003F4805F011FA01224FF480613B4805F01B
:102F70000BFA39481FA9CDE91F76CDE921A505F047
:102F80006FF850234FF0080934481FA9CDE91F36C8
:102F9000CDE9216505F064F831481FA9CDE91F96F8
:102FA000CDE9216505F05CF82C481FA9CDE91F7615
:102FB000CDE921A505F054F82A492B4B4FF4E13215
:102FC0000B600023C1E901230C220846C1E9033349
:102FD000C1E90523C1E90733C1E909330AF053F810
:102FE000014608B172B6FEE71E480AF0BAF801467B
:102FF00008B172B6FEE71B480AF0D3F808B172B602
:10300000FEE718480AF092F808B172B6FEE7174AD0
:10301000174B1046136006F037F908B172B6FEE799
:10302000144A154B1046136006F02EF908B172B61B
:10303000FEE7124A124B1046136006F025F908B15C
:1030400072B6FEE70F4A104B1046136006F01CF9EB
:103050008046D8B172B6FEE700100256001802563C
:10306000000002562CAC003400100052E4AC0034D6
:1030700000310252D8AC003480310252CCAC003462
:1030800000320252C0AC0034803202524FF4007B56
:10309000CC4806F016F9CC48CC4C06F012F9CC48D6
:1030A00006F00FF9CB4806F00CF9C4F858BAD4F87A
:1030B000583209200F931FA90F9BCDE91FA509F0D6
:1030C0001BFD48461FA909F017FD0A201FA909F09A
:1030D00013FD0B201FA909F00FFD30461FA909F0B1
:1030E0000BFD06201FA909F007FD2946BA4809F083
:1030F00019FD2946B94809F015FD2946B84809F0D7
:1031000011FD2946B74809F00DFD2946B64809F0DA
:1031100009FD2946B54809F005FD2946B44809F0DE
:1031200001FD2021304606F047F840F201324946C1
:10313000B04805F02EF940F201321021AE4805F0FA
:1031400028F940F201324FF48041AB4805F021F9F3
:1031500040F201322021A94805F01BF940F201326A
:103160004021A64805F015F940F201323946A3483E
:1031700005F00FF940F201321021A14805F009F9DC
:1031800040F2013240219E4805F003F940F201323D
:1031900039469B4805F0FDF840F201323146994826
:1031A00005F0F7F840F201325146964805F0F1F883
:1031B00040F201320421934805F0EBF840F201326D
:1031C0004946904805F0E5F840F2013210218D485B
:1031D00005F0DFF840F2013220218A4805F0D9F8E5
:1031E00040F201324021874805F0D3F840F2013225
:1031F0004FF48071834805F0CCF840F20132594613
:10320000804805F0C6F840F2013239467D4805F0A5
:10321000C0F840F201324FF400617A4805F0B9F885
:1032200040F201323146784805F0B3F840F20132FD
:103230000421754805F0ADF840F2013210217248C2
:1032400005F0A7F840F2013220216F4805F0A1F8FF
:1032500040F2013231466D4805F09BF840F20132F0
:1032600051466A4805F095F840F20132042167485A
:1032700005F08FF840F201324946644805F089F8BC
:1032800040F201321021614805F083F840F201322A
:1032900020215E4805F07DF840F2013240215B4874
:1032A00005F077F840F201328021584805F071F8B6
:1032B00040F201324FF6B041554805F06AF840F24D
:1032C00001322021534805F064F82946524809F09C
:1032D00029FC404601F086FB4FF00043C4F8603AF9
:1032E000D4F860224D4D1092109A4D4AC4F8203AFD
:1032F000C2F82032C4F8587AD4F858321193119B8E
:10330000C4F8187AC2F8187209F0C4FF09F0CCFFAB
:103310004FF0FF33C4F8843AD4F884221F921F9AE6
:10332000C4F88C3AD4F88C221E921E9AC4F8903AB3
:10333000D4F890221D921D9AC4F8943AD4F894229D
:103340001C921C9AC4F8983AD4F898221B921B9AA3
:10335000C4F89C3AD4F89C221A921A9AC4F8A03A5B
:10336000D4F8A0221992199AC4F8A43AD4F8A42245
:103370001892189AC4F8A83AD4F8A8221792179A63
:10338000C4F8AC3AD4F8AC221692169AC4F8B43AFF
:10339000D4F8B4221592159AC4F8B83AD4F8B822E1
:1033A0001492149AC4F8BC3AD4F8BC221392139A1B
:1033B000C4F8883AD4F888321293129BCDF80C8066
:1033C00030E000BFE4AC0034D8AC003400800256DA
:1033D000CCAC0034C0AC00341D000020050000302F
:1033E0000600003007000030080000300A000030FE
:1033F0001C00001000000256000C0256001002567D
:10340000001802560034025600380256003C02569C
:1034100000140256001C02561C0000207FB2E60E6B
:1034200000900256039BAB4239D906240027764E02
:1034300000224FF48061754804F0A6FF0497049BB6
:10344000B34231D301224FF48061704804F09CFFF5
:103450000597059BB3422CD3013CE9D180226C49EE
:103460006C4B08460B606C4B5A70E0229A7010222D
:103470001C701A71DC705C714B6001230B72674B1E
:10348000674A4B6160338B614FF4C063CA6060323E
:103490000A61CB6104F0C4FB80B172B6FEE700BFE5
:1034A000039B01330393BDE700BF049B01330493E7
:1034B000C5E700BF059B01330593CAE73C222146BF
:1034C000584817F00AFC2123564A069453604FF4DB
:1034D00040339361069BAB4224D9072400274A4E10
:1034E00000224FF48061494804F04EFF0797079B84
:1034F000B3421CD301224FF48061444804F044FFDE
:103500000897089BB34217D3013CE9D13423464ABC
:10351000009346494FF4F043454815F0A9F980B1AE
:1035200072B6FEE700BF069B01330693D2E700BFE9
:10353000079B01330793DAE700BF089B0133089329
:10354000DFE70994099BAB421ED9082400272E4EC1
:1035500000224FF480612D4804F016FF0A970A9B61
:10356000B34216D301224FF48061284804F00CFFC7
:103570000B970B9BB34211D3013CE9D12C4800F0CF
:10358000EBFD80B172B6FEE700BF099B01330993E2
:10359000D8E700BF0A9B01330A93E0E700BF0B9B0B
:1035A00001330B93E5E70C940C9BAB421DD9092426
:1035B0000026154D00224FF48061144804F0E4FE0B
:1035C0000D960D9BAB4215D301224FF480610F483D
:1035D00004F0DAFE0E960E9BAB4210D3013CE9D10B
:1035E00025B0BDE8F04FFFF747B800BF0C9B013393
:1035F0000C93D9E700BF0D9B01330D93E1E700BFAA
:103600000E9B01330E93E6E70087930300180256E2
:10361000F8AA003400600358BC99003400801F34BD
:10362000C0801F34BCAA003480811F34F8E01170C0
:1036300088AA00347FB5474B1A6842F400521A60DA
:103640001A6842F480521A60A3F573435A6912F45F
:10365000003211D1BFF34F8FBFF36F8FC3F85022E9
:10366000BFF34F8FBFF36F8F5A6942F400325A6134
:10367000BFF34F8FBFF36F8F374A536913F4803313
:1036800028D1C2F88430BFF34F8F43F6E074D2F8EC
:103690008030C3F3C900C3F34E335B0100F1010E68
:1036A00001464EF001E003EA040646EA8175C2F8DD
:1036B000605201390FF007C8203B13F1200FEDD104
:1036C000BFF34F8F536943F480335361BFF34F8F80
:1036D000BFF36F8F002501F053FA1022002102A8DA
:1036E00017F0FBFAADF8045001F074FC1B4B0124F9
:1036F000039303F27F1304934FF4807302A805939E
:10370000ADF8084001F07AFC01A8ADF8045001F0D2
:103710007BFC134B02A8039303F5EF437F33049321
:103720008DF80940ADF8144001F068FC43F2013314
:1037300001A8ADF8043001F067FC042001F038FC6A
:1037400001F01EFB13F0AAFC13F082FC01F018FA42
:10375000FEE700BF00E001E000ED00E000801F3464
:1037600080811F3408B5084A084B4FF4403113607C
:103770000223C2E9011300231046D36003F091F93C
:1037800008B172B6FEE708BDECAD00340010025877
:10379000114908B5114B124A0B600023C1E90123FE
:1037A00001220846C1E90323C1E90533C1E9073312
:1037B00004F03CFF014608B172B6FEE7064805F08A
:1037C0005BF9014608B172B6FEE7034805F07AF9E5
:1037D00008B172B6FEE708BD98AD0034005800503D
:1037E000FFEDC0302DE9F0419AB034220021684647
:1037F00017F073FA342200210DEB020017F06DFA76
:10380000314A324B1146136000232F20C2E90133A5
:10381000D360136102228724C1E90502222240F20B
:10382000A735C1E9074240F2022240F2CF36C1E992
:10383000095240F20F220846C1E90B628B8681F8DB
:10384000363005F0DDFB024608B172B6FEE74FF4F4
:1038500048754FF0FF084FF4F07404234FF4C0672D
:103860000726CDE90150CDE90580CDE90905009095
:10387000ADF830008DF8320069461348CDE90343B6
:10388000CDE907760B9405F015FC08B172B6FEE79A
:103890000823CDE90D05CDE90F04CDE91307CDE9E6
:1038A0001560ADF864008DF86600012206480DA988
:1038B000CDE91138CDE9175405F0FCFB08B172B61B
:1038C000FEE71AB0BDE8F081F0AC003400100058FB
:1038D0000123C02200B589B00A21CDE905321F239A
:1038E000CDE9033102934FF480530193064B074A0D
:1038F000009307490023074815F042FA08B172B651
:10390000FEE709B000BD00BFC2990034E52E10707B
:1039100005E11170C8A9003472B6FEE7C0B26DEDC2
:1039200081CF11B140B1012809D09FEC100A9FE866
:103930000F90FDEC81CF7447024B1960F5E7024B05
:10394000FBE700BF58AE003454AE003408B477B57E
:1039500004460D46164607AB53F8042B30210748A2
:10396000019317F001F9334629462046034A15F022
:1039700099FE03B0BDE8704001B070475CAE003402
:10398000044B82B0C3F84C0AD3F84C320193019B2C
:1039900002B0704700800256044B82B0C3F85C0A44
:1039A000D3F85C320193019B02B07047008002564D
:1039B000044B82B0C3F8600AD3F860320193019BD4
:1039C00002B070470080025608B505F045FC0121A1
:1039D000084605F011FC05F047FC0121022005F026
:1039E0000BFC05F049FCBDE808400021032005F070
:1039F00003BC00000268034B9A4202D10220FFF789
:103A0000D7BF70470010025810B50446EAB0142220
:103A1000002101A817F061F94FF4C872002106A82F
:103A200017F05BF92268174B9A4229D100234FF413
:103A30000052CDE90623144B06A8419305F0B8FDCA
:103A400008B1FFF769FF0820FFF7A6FF44F2100254
:103A500012230021CDE901230323CDE9031304231D
:103A60000A480DEB0301059304F0FAFA4FF48002C3
:103A7000074BC3F8642AD3F864226B4600921B6894
:103A80006AB010BD005800500C040007000C02562C
:103A90000080025608B50268094B9A420FD14FF4D4
:103AA0008002084B10210848C3F8642204F0BCFBD4
:103AB000BDE808404FF48041034804F0B5BB08BDA1
:103AC0000058005000900256000C0256F0B5044613
:103AD000EBB01422002101A817F0FFF84FF4C872D0
:103AE000002106A817F0F9F822683A4B9A426FD1E4
:103AF00000234FF08072CDE906234FF000734C9302
:103B000018234FF000510DEB0300CDE9261305F00B
:103B10004FFD08B1FFF700FF02242F4B2046C3F8EA
:103B20007C4AD3F87C226B4600921B68FFF734FF77
:103B30008020FFF731FF2020FFF72EFF0120FFF745
:103B40002BFF4020FFF728FF002603250E2749F60C
:103B50003243224801A9CDE90134CDE90365059737
:103B600004F07EFA10231E4801A9CDE90134CDE905
:103B70000365059704F074FA4FF44073194801A9DE
:103B8000CDE90134CDE90365059704F069FA49F6FA
:103B9000A773154801A9CDE90134CDE9036505975F
:103BA00004F05EFA4BF20623104801A9CDE9013476
:103BB000CDE90365059704F053FA0123CDE90134FB
:103BC0000A230A4801A9CDE90365059304F048FAE0
:103BD0006BB0F0BD00100058008002560004025681
:103BE000001C02560014025600000256001802562D
:103BF00007B54FF480520120FFF7C2FE0220FFF705
:103C0000BFFE0420FFF7BCFE0820FFF7B9FE044BFF
:103C1000C3F8542AD3F854320193019B03B000BD7A
:103C20000080025610B50446EAB01422002101A813
:103C300017F053F84FF4C872002106A817F04DF89A
:103C40002268154B9A4224D14FF480730022CDE9AB
:103C50000623124B06A85A9305F0AAFC08B1FFF7F9
:103C60005BFE10200E4B01A9C3F86C0AD3F86C223E
:103C70006B4600921B686022FFF78EFE0223CDE99F
:103C800001230023CDE9033307230648059304F0FD
:103C9000E7F96AB010BD00BF001000523000010704
:103CA0000080025600100256F0B50446EBB0142214
:103CB000002101A817F011F84FF4C872002106A8DE
:103CC00017F00BF822682B4B9A4251D12022002387
:103CD00006A8CDE9062305F06BFC08B1FFF71CFE32
:103CE0004FF00070FFF764FE8020FFF755FE2020A4
:103CF000022400260B27FFF74FFE0546019001A97D
:103D00001D48CDE902460494059704F0A9F94FF641
:103D100090431A4801A9CDE90134CDE90364059720
:103D200004F09EF932463146B32001F003F9B32086
:103D300001F030F94FF48000FFF73AFE4FF4000035
:103D4000FFF736FE4FF08070FFF732FE29460B4832
:103D500004F06AFA29460948324604F015FB0123AB
:103D6000064801A9CDE902340195049404F078F9DC
:103D70006BB0F0BD00600358001C025600140256E0
:103D800008B50268094B9A420ED14FF48060FFF7E4
:103D9000F7FD4FF08040FFF70BFE054BC3F8200AFC
:103DA00003F58053C3F8200208BD00BF00FC0D5886
:103DB000008002560020704714F09EBB14F0C8B972
:103DC000FEE7FEE7FEE7FEE7FEE7FEE77047704727
:103DD00008B510F0FBF8BDE8084001F0C4BB08B519
:103DE00010F0F4F8BDE8084001F0F4BC014803F01D
:103DF00059BC00BFF8AA00340120704708B517F07D
:103E0000C1F9162303604FF0FF3008BD08B517F065
:103E1000B9F916230360FEE770B50D4614460E4649
:103E2000731B9C4201DC204670BDAFF3008006F896
:103E3000010BF5E770B50D4614460E46731B9C4208
:103E400001DC204670BD16F8010B00F0D5FDF5E74A
:103E50004FF0FF3070474FF4005300204B60704725
:103E600001207047002070470A4A0346106810B5C9
:103E700008B9094810600949094C0344091B8B42E1
:103E800006D917F07FF90C2303604FF0FF3010BD07
:103E90001360FCE78CAE0034207F01340000203436
:103EA0000008000008B5194D2B78012BDCB20BD0AF
:103EB000022C1AD0164801224FF4806104F064FAF3
:103EC0000A2014F045F9EFE700224FF48061104812
:103ED00004F05AFA0A2014F03BF90D4822464FF438
:103EE000806104F051FAC820EBE700224FF48061B2
:103EF000074804F049FA322014F02AF90448012254
:103F00004FF4806104F040FA3220DAE704B900345B
:103F1000001002567FB506460D464FF0FF3338229B
:103F2000114803A90FF0AAF90446D0B92846FDF7B5
:103F30002DFC4FF0FF330246009329460A4B0398AD
:103F40000FF0C4F9044618B103A80FF077FA08E09F
:103F50004FF47A72304603A90FF0B6FB04460028EE
:103F6000F2D1204604B070BDC8B8003400234FF42D
:103F7000967230B5FDB04FF40071CDE90432802265
:103F80003A48CDE901210393394A009331A90FF052
:103F900023FB08B1FFF7C0FC4FF0FF3241F69071F0
:103FA00031A80FF08BFA08B1FFF7B6FC314816F0D4
:103FB00007FC3149642341F6907231A80FF0ACFA46
:103FC000014658B1382803D12E2016F00BFCF0E73B
:103FD0002A4816F0F5FBFFF79FFCEAE70222284B80
:103FE00028481A7016F05CFC274931A8FFF792FFA9
:103FF000014690B3254816F0E3FB254D07AC4FF082
:10400000FF322146234814F0BDFD0028F7D194ED7E
:10401000017AB7EEC77A2368A021002B08BF2B4690
:104020008DED007B1C4A09A816F0F6FC01389E288D
:10403000E5D809A931A8FFF76DFF014688B9D4ED8D
:10404000017AB7EEE77A216853EC172B002908BFF5
:104050002946124816F0B4FBD0E7114816F020FCB0
:10406000CBE7104816F0ACFBC8E700BFD0B0003477
:1040700019E111702BE111700B02A8C04AE1117017
:1040800004B9003468E111707CE1117091E11170A4
:1040900011E1117028B900342CE211705DE2117049
:1040A00019E2117080E211707FB50224214E0A23BB
:1040B000042200930021204803AB0FF0ABF8054623
:1040C00048BB013C012C18D81C4816F0E9FB00F055
:1040D00056F9022816D11A4816F0E2FB022103AA6B
:1040E00015480FF06DF833781648022B1CBF0123DA
:1040F000337014F0F1FE14F0DFFE642014F028F8A1
:104100002C46D4E7032801D10F48E5E704280CBF6B
:104110000E480F48E0E734F0020408D10D4816F0CD
:10412000BFFB0321044803AA0FF04AF834700125AD
:10413000E3E700BF04B90034D0B00034C8E2117026
:10414000D8E2117050AF0034F4E2117010E3117036
:104150002BE3117046E311701423F0B58BB00446C5
:10416000A822C02100936848022316F029FB41F6DB
:1041700090750B23A822C021CDE9003563480223A6
:1041800016F01EFB0CF03AFA002343F65862204664
:1041900009A914F033FB10B102200BB0F0BD43F6B7
:1041A00058633C205A4ECDE900304FF4C062099B61
:1041B000304658490FF0C0F80346002840F0A1806F
:1041C0004FF40062204609A914F018FB0028E3D13F
:1041D0000A234FF4FF614FF40065CDE90431099BD8
:1041E0004D4A02934D4B4E49CDE900634D486FF067
:1041F000FF0303950EF044FF034608B14320CCE7CC
:104200004FF48062204609A914F0F8FA0028C3D1BF
:104210004FF48062099943480EF0D6FE0028EDD194
:1042200040480EF003FF0028E8D13E480FF0B2F9F5
:104230000028E3D13B480FF099FA03460028DDD16E
:104240002A46204609A914F0D9FA0028A4D10B2245
:1042500000230126C0254FF40067CDE90323029215
:10426000099ACDE9056500922F49304A30480197F7
:1042700014F086FD034608B10E208EE73A4620462C
:1042800009A914F0BBFA0346002885D10A22CDE91A
:104290000222099ACDE90505049000922549264A93
:1042A0002648019714F06CFD03460028E4D14FF432
:1042B0008062204609A914F0A1FA034600287FF481
:1042C0006BAF0C22CDE902224FF480620192099A71
:1042D00004900092CDE90565194A1A491A4814F06C
:1042E0004FFD0028C8D120233C221849CDE90032D7
:1042F00017480222174B14F0DFFB002818BF0920D3
:104300004BE7062049E700BF58E3117084E31170C2
:10431000C8B80034ABE311701402A8C0353811706E
:10432000B7E31170D0B00034C3E31170A94010702E
:1043300010B00034CFE311706D3F107050AF0034F7
:10434000A53E1070DAE3117090AE0034E9E311700D
:1043500028B9003408B9003407B500220090694636
:1043600003488DED010A14F035FC03B000BD00BF19
:1043700028B9003408B500F04DFB002008BD08B591
:1043800000F060FB431EDBB2052B88BF002008BD98
:104390000F4880F30A880F48854600F0A5FB0E48B9
:1043A0000E490F4A002302E0D458C4500433C41805
:1043B0008C42F9D30B4A0C4C002301E01360043209
:1043C000A242FBD316F0E4FEFFF734F9FEE700004B
:1043D00000F81F340000203400000034380300349B
:1043E0006C3F137040030034207F0134FEE700006F
:1043F00008B5044B1A781AB901221A70FFF7C8F9E8
:10440000002008BD64B9003408B5064A137833B1FA
:10441000013BDBB2137013B9034804F05CF90020D0
:1044200008BD00BF64B9003498AD00341FB54FF427
:104430007A740092CDE901340A4602230146044809
:1044400004F062F9003818BF0120404204B010BDEA
:1044500098AD00341FB54FF47A740092CDE9013461
:104460000A4602230146044804F028FA003818BF1F
:104470000120404204B010BD98AD0034FFF79CBC51
:1044800070B534260D4D0E48AC682D6806FB04004F
:10449000846C05FB0211C06D24B950F82120002066
:1044A0001A6070BD062C05BF01EB41010A5830F8B7
:1044B000112022F07F4218BF92B2F0E768B90034B1
:1044C000F0AC0034F0B534271D4C1E4EA06807FB3D
:1044D0000060D0F848C0C56D206800FB0210BCF138
:1044E000000F03D145F820300020F0BDBCF1060FCD
:1044F00022D15FFA83FC00EB4000033D00F805C0C9
:10450000A568206807FB056500FB0210ED6D00EB58
:104510004000C3F3072C023D00F805C02068C3F338
:10452000074300FB0212A16802EB420207FB01668F
:10453000F16D01395354D7E79BB225F81030D3E71A
:1045400068B90034F0AC0034024B00201B680B60EB
:10455000704700BF68B90034024B00205B680B60F5
:10456000704700BF68B9003434200F4B0F4A996080
:1045700000FB01210A6E1A604A6E5A608A6C042A96
:1045800009D0082A0AD0062A0BD0042200210020D4
:10459000C3E90312704702221146F8E70222042100
:1045A000F5E703220121F2E768B90034F0AC0034EA
:1045B000024B0020DB680B60704700BF68B9003415
:1045C0002DE9F3419046304A0F46D168064602294C
:1045D000089C35D140F2031C40F20F20C4F345156E
:1045E000C4F3C4220CFB05F5424304F01F0444430A
:1045F00021351732AD0992092D02173445EA0245DB
:1046000045EA941545F07F444FF440321F4D204851
:10461000C5E90213C5E90002284602F042FA78BB58
:104620003B46324621462846CDF8008002F076FA15
:1046300030BB3221284602B0BDE8F04102F088BA12
:10464000042917D1C4F3033202EB0210C4F303228E
:1046500002EB0212120442EA006204F00F0000EBC7
:1046600000100243C4F3031004F0F004044442EACF
:104670000424C9E7012914BF002144F07F44C3E7A3
:1046800002B0BDE8F08100BF68B90034ECAD003481
:104690000010025873B50C4D0C462E69A8681946D7
:1046A0002B68342502FB0344084A5B1A05FB0022F1
:1046B000D06D079A06FB04000092069AFFF780FF70
:1046C000002002B070BD00BF68B90034F0AC003407
:1046D00073B50C4D14462E69A8681A462B6834250C
:1046E00004FB03140849013B05FB0011C86D069942
:1046F00006FB040000910121FFF762FF002002B0D9
:1047000070BD00BF68B90034F0AC003437B50C465A
:1047100019460B4B18681D6900FB024434209A6847
:10472000084B00FB0233D86D069B05FB0400009389
:1047300001220023FFF744FF002003B030BD00BF7B
:1047400068B90034F0AC0034F7B51746194A0E4684
:10475000D4684FF48031013C032C8CBF0022164AF0
:10476000054698BF125D1548154CC4E90001A260CA
:10477000FF2100222046C4E91123E260E2642165A2
:1047800002F08FF9A0B90121204602F05DFA78B954
:1047900001233246009329463B46204602F0BEF9EB
:1047A00030B93221204603B0BDE8F04002F0D0B964
:1047B00003B0F0BD68B90034340412700010025820
:1047C000ECAD00342DE9F74F2A4E1C46F368154630
:1047D000013B032B884688BF00234FF0340A98BF63
:1047E000254A0D9F98BFD35CDFF89090DFF890B01A
:1047F0002F44BD4203D1002003B0BDE8F08FB26862
:10480000D6F800C00AFB029205FB0C8E3069D16D10
:1048100000FB0E110CFB00F000281EDD04F01F024F
:104820000244BFF34F8F6FEA040E04EB020CE64420
:10483000203A4FEA5E1E20320EF1010ED8BF4FF033
:10484000010E20464EF001E0CBF8680220300FF058
:1048500005C8BFF34F8FBFF36F8F20460C9A0193AB
:10486000FFF772FF0C9B3269013502FB0344019B89
:10487000BFE700BF68B9003434041270F0AC0034F4
:1048800000ED00E04FF0340C2DE9F84F1F4F9D8BE9
:104890003C68BE6804FB02111D4A3C690CFB062201
:1048A000D66DA5F12002072A04FB0166D3F80A00A1
:1048B000D3F812A0D3F8169017D9A5F11002072A41
:1048C0008CBF4FF0010B4FF0020B4FF00008ED08CA
:1048D0000AFB05F509F1FF3205FB02006D421C18C9
:1048E000C84505D10020BDE8F88F4FF0000BECE77C
:1048F00031465B4620465246FFF726FF3B69396842
:104900002C4401FB036608F10108E9E768B90034AB
:10491000F0AC0034022810B5044605D001280ED0B2
:1049200004280CBF02240424064BC3E90304C3E992
:104930000012FEF717FFBDE81040FEF753BF032437
:10494000F2E700BF68B900344FF4F0724FF44871D9
:104950000220FFF7DFBF000070B5FF260C468EB0C7
:1049600024220021054605A816F0B7F94FF4C06EC1
:1049700006960726A268E368206804939B1A61687C
:104980000C932369CDE908E666690291022BA1EB3D
:104990000001019003920A960B910AD1042305931A
:1049A0006B1E5A425A4101A9064804F083FB0EB01F
:1049B00070BD042B01D10823F1E7002BF0D00623B2
:1049C000EDE700BFF0AC0034024600B1012208213F
:1049D000014803F0D9BC00BF0000025600487047F0
:1049E000F0AC0034034B022218680023806819469B
:1049F00015F05EBF7C01003407B54FF6FF730190E0
:104A0000012201A9024808F08CFA019803B000BD08
:104A10002CAC003408B500222021084803F0B4FC77
:104A20003220FFF7CBF905480122202103F0ACFC2E
:104A3000BDE80840024803F0AFB800BF00140256BA
:104A4000F8AA003407B500210122264801AB02F084
:104A50004BFF014610B1002003B000BD01222148E8
:104A600001AB02F041FF02460028F4D1019B5B0735
:104A700033D5014601AB1B4802F036FF0146002842
:104A8000E9D1019BD80411D403F40552B2F5045FB7
:104A900001D10220E0E703F40152B2F5005F01D139
:104AA0000320D9E7D90516D40520D5E711220D48F2
:104AB00001AB02F019FF0028CDD1019B1A050ED5DC
:104AC00003F46043B3F5C04FE3D0B3F5804FE7D0B4
:104AD000B3F5005FE8D10420BEE70120BCE7062063
:104AE000BAE700BFF8AA00341E491F4AD1F88C303B
:104AF00010B543F44063C1F88C30536B23F0E0539E
:104B000043F0805353630022184BC3F88022C3F84C
:104B10008422C3F88822C3F88C22C3F89022C3F8F9
:104B20009422C3F898220122114B8B60114BC3F8D9
:104B3000782AD3F878028C680F4803F58053046113
:104B40000069C3F87822D1F888300C4A43F4700326
:104B5000C1F88830D2F8883043F47003C2F8883046
:104B600010BD00BF00ED00E000EF00E000E100E05C
:104B700000041070008002560080005600ED02E034
:104B80006E4BF0B51A6A02F44012B2F5001F00F045
:104B9000B98006D862B99A6C694BC2F3C112D3408E
:104BA00003E0B2F5401F09D00023664A1360F0BD50
:104BB0005B6C9F0500F1A880634BF6E7D3F8C42037
:104BC00002F04052B2F1805F29D0B2F1005F35D0DF
:104BD000002A42D1D3F880100E0101F0E04000F12C
:104BE0009A80D3F88440D3F88820C1F30B2524F0B1
:104BF0007F440746B7F1005FC2F3C266C1F30550B8
:104C0000C2F302624ED000F28180002F3AD000271A
:104C10004A4B5B6C9B0554BF4B4B4C4B38E0D3F875
:104C200090100D0101F0E04075D4D3F89440C1F329
:104C30000B25D3F8982024F07F44DAE7D3F8A010AE
:104C40000C0101F0E04066D4D3F8A440C1F30B2579
:104C5000D3F8A82024F07F44CBE7D3F8B0100A01A2
:104C600001F0E04057D4D3F8B440C1F30B25D3F89A
:104C7000B82024F07F44BCE70246064604460546B9
:104C80004FF000672D4B996C2D4BC1F3C111CB40F8
:104C90004FB12A4AD2F8C420C2F307420132B3FB13
:104CA000F2F382E72A4B07EE104AB8EEC76A07EE26
:104CB000105A07EE903ADFED276AB8EEC77AF8EEA1
:104CC000E77AA6EE267A67EE877A07EE100AB8EE44
:104CD000C77AC7EE876A07EE906AB8EEE77A07EE02
:104CE000902AF8EEE77A27EE277AC6EE877AFCEE6E
:104CF000E77A17EE903ACCE70023D4E7144BC8E7E5
:104D00000023C6E7124B50E7104B4EE7B7F1405F68
:104D1000F2D1114BC7E7B0F1005FEFD009D80028FE
:104D2000AAD000224FF000671646144615461046DA
:104D30006EE7B0F1405FE3D1074BAAE7008002566F
:104D40000090D0033400003400093D000024F4003A
:104D5000006CDC02000080330080BB006DED81CF71
:104D600000B5FFF70DFF054B5DF804EB18689FECED
:104D7000100A9FE80E90FDEC81CF74473400003498
:104D800010B5032000F0C4F8FFF7FAFE0F20FFF77C
:104D900011F8044618B9FEF717FE204610BD01248D
:104DA000FBE738B504680546606810F009003FD19C
:104DB000A860012028711220013BE060C4F80421A2
:104DC0001A44C4F80821D4F8003123F0060319432B
:104DD000049BC4F80011012BA3680AD143F010030F
:104DE000A360D4F8003143F00103C4F8003100207F
:104DF0001DE023F01003A360D4F8003143F0010359
:104E0000C4F80031FEF7D8FF04462B685B68DB0668
:104E1000EDD4FEF7D1FF001BC828F6D92B685B68DC
:104E2000DA06F2D41023AB60062301202B7138BDC3
:104E30000220FCE738B50446E0B103685A68D007A1
:104E400006D5FEF7B9FF054623685A68D20706D48F
:104E50000020A0601A6842F001021A600BE0FEF721
:104E6000ABFF401B0128EFD923685B68D907EBD45F
:104E70001023A360012038BD10B5044660B103794A
:104E80000BB9FEF77DFF0023A360012323712046A9
:104E9000BDE81040FFF7CEBF012010BD134607B597
:104EA00038B1002200920A460621FFF77AFF03B0CC
:104EB00000BD0120FBE74B788360036923F0010309
:104EC00003614B688A7B23F01F031343CA7B43EAC9
:104ED000C2034A7B43EA4203C3608B680A7823F02B
:104EE0001F0313430A7B43EA42030361704710B573
:104EF000FF24032992BF3030343004390368C900DD
:104F00008C4023EA04038A401343036010BD000071
:104F100007490302CA6803F4E06322F4E062120462
:104F2000120C134343F0BF6343F40033CB6070476C
:104F300000ED00E0154B30B5DC68C4F30224C4F189
:104F40000703251D042B28BF0423062D4FF0FF3532
:104F500094BF0024033C05FA03F321EA0303A540B0
:104F600022EA0502A340002843EA0203ACBF00F195
:104F70006040074A4FEA0313DBB2ABBF00F5614064
:104F800000F00F0080F80033135430BD00ED00E056
:104F900014ED00E0002807DB01234109034A00F07B
:104FA0001F00834042F82130704700BF00E100E05D
:104FB000BFF35F8F064B40F00100C3F894005A6ABC
:104FC00042F480325A62BFF34F8FBFF36F8F704746
:104FD00000ED00E0BFF35F8F074B5A6A22F4803286
:104FE0005A62D3F8942022F00102C3F89420BFF350
:104FF0004F8FBFF36F8F704700ED00E0014601480F
:10500000FFF759BF90ED00E0427801780148FFF7C3
:105010006EBF00BF90ED00E0F8B51446036871BBA9
:10502000D3F8042422F4C01242EAC442C3F8042490
:10503000234B022C1A6838D0032C39D0012C3AD1DA
:1050400042F040021A60FEF7B7FE4FF40036074602
:105050001B4DA640FEF7B0FEC01BB0F57A7F2DD8E1
:10506000D5F8903036EA0303F4D14FF4885300208A
:10507000D5F88020A3401343C5F88030F8BD01293E
:10508000D3F8042806D122F4C01242EAC442C3F87D
:105090000428CDE7520341BFD3F8042C22F4C012F8
:1050A00042EAC442C3F8042CC2E742F48062C9E772
:1050B00042F48042C6E742F00402C3E70120DDE784
:1050C00000600058012930B54FF00205046810D186
:1050D0008571D4F800190B43C4F80039C4F8C42909
:1050E000D4F8F03343F4060343F02003C4F8F0335C
:1050F00030BD08444571D4F8001D0B43C4F8003D91
:10510000C4F8C42DD4F8F03343F00643ECE770B490
:1051100015461E4699B9022301684371D1F800254E
:105120003243C1F80025C1F8C455D1F8F03370BC42
:1051300043F4064343F02003C1F8F033704770BCDA
:10514000FFF7C0BF022383710368D3F8042842F03D
:105150000042C3F80428D3F8002942F00802C3F83B
:105160000029704769B90368D3F8042442F000426B
:10517000C3F80424D3F8002542F00802C3F8002540
:105180007047012901D1FFF7DDBF0368D3F8042C74
:1051900042F00042C3F8042CD3F8002D42F008027C
:1051A000C3F8002D70470000184B10B55A69C9B2FA
:1051B00042F480325A611A6942F001021A615A6956
:1051C00042F480325A6100221A615A615C695C6162
:1051D0001C6944F001041C611A615C6944F4803468
:1051E0005C611C6944F001041C615C69044344F483
:1051F00080345C611A615A615869014359611969C7
:1052000041F0010119611A6110BD00BF0070005822
:1052100010B5044668B103790BB90FF0A9F8032360
:105220000020237101236071A071E071A0602371DF
:1052300010BD0120FCE700002DE9F0430446FFB05B
:105240000D464FF4FC72684640496F4615F0DDFF8D
:105250001CB901207FB0BDE8F083002DF9D03C4B94
:105260001A6822F001021A606868012819D12968B9
:1052700041F404121A671A68B1F5807F42F0010206
:105280001A60D3F8802042F0B04242F40412C3F80E
:105290008020D3F8842055D1012808D142F01F0284
:1052A00007E00228D5D1296841F49012E2E742F4E0
:1052B000F8524FF00008274CC3F884202368244E8E
:1052C00023F002032360C6F804802369012043F021
:1052D00001032361FEF772FDC4F81080D5F8089031
:1052E000A36857F8392023F4FE4343EA022343F02E
:1052F0002803A360382108204FEA022807EBC907DA
:10530000FFF752FF1121E420FFF74EFF7F68E320F3
:10531000390AFFF749FFE320F9B2FFF745FF48F4E8
:10532000803343F02803A3602B680020B3F5807F0F
:105330000CBF07230F237360236843F0020323602D
:10534000606087E742F4F852A8E700BF08DE1170FA
:10535000006000580070005830B558B152B1037960
:10536000013B012B3ED8156825F48033B3F5003F8F
:1053700002D1F9B1012038E0022914BF2C460024E3
:105380005368B5F5803F44EA0304036802D0B5F5DD
:10539000003F04D1022929D0926844EA022469B16D
:1053A000012923D1D3F80418144A0A402243C3F830
:1053B00004280BE0B5F5403F2C46E1D103680F4AC5
:1053C000D3F804140A402243C3F80424D3F8042178
:1053D00022F48042C3F80421D3F8042242F00102EF
:1053E000C3F8042202230371002030BDD3F8042C3B
:1053F00022F03F022243C3F8042CE7E7C0C0FCFFC1
:10540000F0B1032908D8DFE801F002090F150D4BB0
:10541000120242F001021A6100207047094B120289
:1054200042F001021A62F7E7064B120242F0010253
:105430001A63F1E7034B120242F001021A64EBE730
:1054400001207047006000580346F0B500285FD087
:10545000002A5DD0022902D19068062858D85C182D
:1054600060791D79C0B2022DEEB251D110F0FB006F
:105470004ED166711B68176849B9D3F8002522F030
:1054800003023A43C3F8002501236371F0BD0129EB
:10549000D2E9015626D1D3F800291E4922F0030291
:1054A0003A43C3F80029D3F8C02922F00F0232434F
:1054B000C3F8C029D3F8CC290A402A43C3F8CC2921
:1054C000F21F012A06D8D3F8DC290A402A43C3F880
:1054D000DC29D9E7092ED7D1D3F8DC290A4042EAE2
:1054E0005502F4E7D3F8002D22F003023A43C3F843
:1054F000002DD3F8C02D22F00F023243C3F8C02D87
:10550000D3F8CC2D6FF30E022A43C3F8CC2DBBE7A2
:105510000120BBE70080FFFFF8B50E461F4604469A
:1055200010B901252846F8BD1D07FAD103684518B2
:10553000D3F804326D79012DF3D1DB07F1D5FFF7F4
:105540006BFD05460028ECD1314620463A46069BC5
:10555000FFF7DDFD31462046FFF704FEE2E7704726
:10556000704770477047036870B5D3F8F863044616
:105570007204D3F8F05312D5690410D5D3F8F02390
:10558000002122F48042C3F8F023826842F0040232
:1055900082604FF48042C3F8FC23FFF7E1FF7205FD
:1055A0000AD56B0508D54FF4806223680021204698
:1055B000C3F8FC230EF0BCFEB00516D5A90514D522
:1055C0002368D3F80025520707D5D3F8F02322F437
:1055D0000642C3F8F023012262714FF400720021E9
:1055E0002046C3F8FC230EF0B3FEF3050AD5E80508
:1055F00008D54FF48072236800212046C3F8FC23AD
:10560000FFF7ADFF310416D52A0414D52368002115
:10561000D3F8F023204622F40042C3F8F023A26816
:1056200042F00802A2604FF40042C3F8FC230423B6
:105630006371FFF796FFF3030AD5E80308D54FF42B
:105640008032236801212046C3F8FC23FFF787FF3F
:1056500071030AD56A0308D54FF48022236801211B
:105660002046C3F8FC230EF063FEB30316D5A8034F
:1056700014D52368D3F80029510707D5D3F8F023B0
:1056800022F40602C3F8F0230122A2714FF4003283
:1056900001212046C3F8FC230EF05AFE320216D533
:1056A0002B0214D523680121D3F8F023204622F4DD
:1056B0000002C3F8F023A26842F01002A2604FF487
:1056C0000002C3F8FC230423A371FFF74AFFF00193
:1056D0000AD5E90108D54FF08072236802212046DF
:1056E000C3F8FC23FFF73BFF72010AD56B0108D515
:1056F0004FF08062236802212046C3F8FC230EF09D
:1057000017FEB00116D5A90114D52368D3F8002DD2
:10571000520707D5D3F8F02322F00642C3F8F0234E
:105720000122E2714FF0007202212046C3F8FC23EF
:105730000EF00EFE002E16DA002D14DA2368022178
:10574000D3F8F023204622F00042C3F8F023A268E9
:1057500042F02002A2604FF00042C3F8FC23042371
:10576000E371FFF7FEFE700614D5690612D52368B3
:105770002046D3F8F02322F04002C3F8F023A268B9
:1057800042F00202A2604022C3F8FC2304232371EA
:10579000FFF7E8FEB20614D5AB0612D52368204603
:1057A000D3F8F02322F02002C3F8F023A26842F0DD
:1057B0000102A2602022C3F8FC2304232371FFF717
:1057C000D1FE70BD70477047704770477047704793
:1057D00070470000B54B2DE9F041D3F890600446C6
:1057E000B202D3F89480D3F88050D3F884700DD5EA
:1057F000A9020BD5D3F8802022F40012C3F8802030
:105800004FF40012C3F80021FFF7DDFF320715D572
:105810002B0713D523680321D3F80035204613F056
:10582000040FA24B1EBFD3F8802022F00802C3F859
:1058300080200822C3F80021FFF7CAFF700715D5A2
:10584000690713D523680221D3F80035204613F0E9
:10585000040F964B1EBFD3F8802022F00402C3F839
:1058600080200422C3F80021FFF7B2FFB20715D54C
:10587000AB0713D523680121D3F80035204613F078
:10588000040F8A4B1EBFD3F8802022F00202C3F817
:1058900080200222C3F80021FFF79AFFF00715D5F8
:1058A000E90713D523680021D3F80035204613F00B
:1058B000040F7E4B1EBFD3F8802022F00102C3F8F4
:1058C00080200122C3F80021FFF782FF320416D5A1
:1058D0002B0414D523680321D3F80035204613F098
:1058E000040F724B1EBFD3F8802022F40042C3F88D
:1058F00080204FF40042C3F80021FFF766FF7004D8
:1059000016D5690414D523680221D3F80035204642
:1059100013F0040F654B1EBFD3F8802022F48042A1
:10592000C3F880204FF48042C3F80021FFF74DFFF9
:10593000B20416D5AB0414D523680121D3F8003581
:10594000204613F0040F594B1EBFD3F8802022F4D9
:105950000052C3F880204FF40052C3F80021FFF733
:1059600034FFF00416D5E90414D523680021D3F8D8
:105970000035204613F0040F4C4B1EBFD3F8802097
:1059800022F48052C3F880204FF48052C3F80021E3
:10599000FFF71BFF320516D52B0514D5236803210D
:1059A000D3F80035204613F0040F404B1EBFD3F848
:1059B000802022F40062C3F880204FF40062C3F814
:1059C0000021FFF703FF700516D5690514D523687C
:1059D0000221D3F80035204613F0040F334B1EBFCD
:1059E000D3F8802022F48062C3F880204FF48062D4
:1059F000C3F80021FFF7EAFEB20516D5AB0514D5B2
:105A000023680121D3F80035204613F0040F274BFB
:105A10001EBFD3F8802022F40072C3F880204FF418
:105A20000072C3F80021FFF7D1FEF00516D5E90595
:105A300014D523680021D3F80035204613F0040F55
:105A40001A4B1EBFD3F8802022F48072C3F8802046
:105A50004FF48072C3F80021FFF7B8FE320615D567
:105A60002B0613D523680321D3F80035204613F005
:105A7000040F0E4B1EBFD3F8802022F08002C3F823
:105A800080208022C3F80021FFF7A1FE700619D5FF
:105A9000690617D523680221D3F80035204613F094
:105AA000040F024B18BFD3F8802001E000600058BB
:105AB0001CBF22F04002C3F880204022C3F800211E
:105AC000FFF785FEB20615D5AB0613D52368012175
:105AD000D3F80035204613F0040FB94B1EBFD3F89E
:105AE000802022F02002C3F880202022C3F8002169
:105AF000FFF76DFEF00615D5E90613D523680021E2
:105B0000D3F80035204613F0040FAD4B1EBFD3F879
:105B1000802022F01002C3F880201022C3F8002158
:105B2000FFF755FE720013D56B0011D5A44B20462C
:105B3000D3F8802022F08042C3F880204FF08042CA
:105B4000C3F80021A36843F48073A360FFF70AFD44
:105B5000B00013D5A90011D5994B2046D3F8802069
:105B600022F00052C3F880204FF00052C3F8002109
:105B7000A36843F40073A360FFF7F4FCF20013D5AD
:105B8000EB0011D58E4B2046D3F8802022F08052B6
:105B9000C3F880204FF08052C3F80021A36843F47B
:105BA0008063A360FFF7DEFC300113D5290111D516
:105BB000834B2046D3F8802022F00062C3F8802077
:105BC0004FF00062C3F80021A36843F40063A360B0
:105BD000FFF7C8FC720113D56B0111D5784B204635
:105BE000D3F8802022F08062C3F880204FF08062DA
:105BF000C3F80021A36843F48053A360FFF7B2FC0D
:105C0000B00113D5A90111D56D4B2046D3F88020E2
:105C100022F00072C3F880204FF00072C3F8002118
:105C2000A36843F40053A360FFF79CFCF20113D573
:105C3000EB0111D5624B2046D3F8802022F0807210
:105C4000C3F880204FF08072C3F80021A36843F4AA
:105C50008043A360FFF786FC18F0010F14D0F8070B
:105C600012D50121564B2046D3F8802022F00102A4
:105C7000C3F88020C3F80411A36843F40023A36091
:105C800004232371FFF79EFD18F0020F15D0B9070A
:105C900013D54B4B0121D3F88020204622F002027D
:105CA000C3F880200222C3F80421A36843F48023B0
:105CB000A36004232371FFF785FD18F0040F13D0B0
:105CC0007A0711D53E4B0121D3F88020204622F0DF
:105CD0000402C3F880200422C3F80421A36843F41B
:105CE0000033A360FFF76EFD18F0080F13D03B07D9
:105CF00011D5334B0121D3F88020204622F0080231
:105D0000C3F880200822C3F80421A36843F4803339
:105D1000A360FFF757FD18F0100F13D0F80611D548
:105D2000274B0121D3F88020204622F01002C3F82F
:105D300080201022C3F80421A36843F40043A36029
:105D4000FFF740FD18F4807F16D0F90514D51C4BE1
:105D50000221D3F88020204622F48072C3F88020EC
:105D60004FF48072C3F80421A36843F40023A360B6
:105D700004232371FFF726FD18F4007F16D0BA051F
:105D800014D50F4B0221D3F88020204622F4007254
:105D9000C3F880204FF40072C3F80421A36843F4D1
:105DA0008023A36004232371FFF70CFD18F4806F98
:105DB00017D07B0515D5024B0221D3F8802001E0D6
:105DC00000600058204622F48062C3F880204FF41F
:105DD0008062C3F80421A36843F40033A360FFF793
:105DE000F1FC18F4006F14D0380512D51F4B0221B6
:105DF000D3F88020204622F40062C3F880204FF4BC
:105E00000062C3F80421A36843F48033A360FFF762
:105E1000D9FC18F4805F14D0F90412D5134B022179
:105E2000D3F88020204622F48052C3F880204FF41B
:105E30008052C3F80421A36843F40043A360FFF732
:105E4000C1FCF2030FD5EB030DD5084B2046D3F868
:105E5000802022F48032C3F880204FF48032C3F8CF
:105E60000021FFF7B1FCBDE8F08100BF00600058E1
:105E700010B500285BD0002A59D00379022B56D1E7
:105E800009BB01682B4BD1F804010340B3F5804FE7
:105E90004DD0D2E90043D1F8040543EA044300F0B1
:105EA000F0200343C1F80435D2E903349268234358
:105EB000D1F8080543EA02431F4A02401343C1F8E0
:105EC0000835002010BD012917D1D2E9004301682F
:105ED00043EA0443D1F8040900F0F0200343C1F879
